S012000074657374414E4E5F63616D2E733139B5
S306500000001396
S3065000000100A8
S3065000000200A7
S3065000000300A6
S306500000041392
S3065000000500A4
S3065000000600A3
S3065000000700A2
S30650000008138E
S3065000000900A0
S3065000000A009F
S3065000000B009E
S3065000000C138A
S3065000000D009C
S3065000000E009B
S3065000000F009A
S306500000101386
S306500000110098
S306500000120097
S306500000130096
S306500000141382
S306500000150094
S306500000160093
S306500000170092
S30650000018137E
S306500000190090
S3065000001A008F
S3065000001B008E
S3065000001C137A
S3065000001D008C
S3065000001E008B
S3065000001F008A
S306500000201376
S306500000210088
S306500000220087
S306500000230086
S306500000241372
S306500000250084
S306500000260083
S306500000270082
S30650000028136E
S306500000290080
S3065000002A007F
S3065000002B007E
S3065000002C136A
S3065000002D007C
S3065000002E007B
S3065000002F007A
S306500000301366
S306500000310078
S306500000320077
S306500000330076
S306500000341362
S306500000350074
S306500000360073
S306500000370072
S30650000038135E
S306500000390070
S3065000003A006F
S3065000003B006E
S3065000003C6FFE
S3065000003D006C
S3065000003E80EB
S3065000003F0D5D
S306500000406FFA
S306500000410068
S3065000004280E7
S306500000430E58
S306500000446FF6
S306500000450064
S3065000004680E3
S306500000470F53
S306500000486FF2
S306500000490060
S3065000004A80DF
S3065000004B104E
S3065000004C6FEE
S3065000004D005C
S3065000004E80DB
S3065000004F1149
S306500000506FEA
S306500000510058
S3065000005280D7
S306500000531244
S306500000546FE6
S306500000550054
S3065000005680D3
S30650000057133F
S306500000586FE2
S306500000590050
S3065000005A80CF
S3065000005B143A
S3065000005C6FDE
S3065000005D004C
S3065000005E80CB
S3065000005F1535
S306500000606FDA
S306500000610048
S3065000006280C7
S306500000631630
S306500000646FD6
S306500000650044
S3065000006680C3
S30650000067172B
S306500000686FD2
S306500000690040
S3065000006A80BF
S3065000006B1826
S3065000006C6FCE
S3065000006D003C
S3065000006E80BB
S3065000006F1921
S306500000706FCA
S306500000710038
S30650000072C077
S306500000731B1B
S306500000746FC6
S306500000750034
S3065000007640F3
S306500000771A18
S306500000786FC2
S306500000790030
S3065000007AC06F
S3065000007B1D11
S3065000007C6FBE
S3065000007D002C
S3065000007E40EB
S3065000007F1C0E
S306500000806FBA
S306500000810028
S30650000082C067
S306500000830026
S306500000846FB6
S306500000850024
S3065000008640E3
S306500000871E04
S306500000886FB2
S306500000890020
S3065000008A001F
S3065000008B1E00
S3065000008C938A
S3065000008D001C
S3065000008E001B
S3065000008F001A
S306500000900613
S306500000918197
S306500000928691
S306500000938195
S30650000094060F
S306500000958292
S30650000096868D
S306500000978290
S30650000098060B
S30650000099838D
S3065000009A8689
S3065000009B838B
S3065000009C0607
S3065000009D8488
S3065000009E8685
S3065000009F8486
S306500000A00603
S306500000A18583
S306500000A28681
S306500000A38581
S306500000A406FF
S306500000A5867E
S306500000A6867D
S306500000A7867C
S306500000A806FB
S306500000A98779
S306500000AA8679
S306500000AB8777
S306500000AC06F7
S306500000AD8874
S306500000AE8675
S306500000AF8872
S306500000B006F3
S306500000B1896F
S306500000B28671
S306500000B3896D
S306500000B406EF
S306500000B58A6A
S306500000B6866D
S306500000B78A68
S306500000B806EB
S306500000B98B65
S306500000BA8669
S306500000BB8B63
S306500000BC06E7
S306500000BD8C60
S306500000BE8665
S306500000BF8C5E
S306500000C006E3
S306500000C18D5B
S306500000C28661
S306500000C38D59
S306500000C406DF
S306500000C58E56
S306500000C6865D
S306500000C78E54
S306500000C806DB
S306500000C98F51
S306500000CA8659
S306500000CB8F4F
S306500000CC17C6
S306500000CD01DB
S306500000CE805B
S306500000CF02D8
S306500000D013C6
S306500000D101D7
S306500000D24196
S306500000D3F3E3
S306500000D417BE
S306500000D57D57
S306500000D600D3
S306500000D701D1
S306500000D813BE
S306500000D90DC3
S306500000DA4D82
S306500000DB349A
S306500000DC9736
S306500000DD8D3F
S306500000DE00CB
S306500000DF01C9
S306500000E09336
S306500000E18D3B
S306500000E20DBA
S306500000E3A224
S306500000E46362
S306500000E5576D
S306500000E6BD06
S306500000E701C1
S306500000E8239E
S306500000E920A0
S306500000EA0DB2
S306500000EB00BE
S306500000EC11AC
S306500000ED0DAF
S306500000EEE3D8
S306500000EFDDDD
S306500000F0AD0C
S306500000F1FFB9
S306500000F21D9A
S306500000F32492
S306500000F413A2
S306500000F505AF
S306500000F600B3
S306500000F700B2
S306500000F8931E
S306500000F905AB
S306500000FAA00F
S306500000FB01AD
S306500000FCEFBE
S306500000FD208C
S306500000FE604B
S306500000FF5951
S306500001001395
S3065000010105A2
S3065000010200A6
S3065000010300A5
S306500001049311
S30650000105059E
S3065000010600A2
S3065000010700A1
S30650000108EFB1
S30650000109108F
S3065000010AE0BE
S3065000010B4558
S3065000010CEFAD
S3065000010D207B
S3065000010E405A
S3065000010F5E3B
S30650000110EFA9
S306500001112077
S306500001120096
S306500001135F36
S306500001141D77
S306500001157122
S30650000116860C
S30650000117CEC3
S30650000118EFA1
S30650000119008F
S3065000011A404E
S3065000011B1677
S3065000011C97F5
S3065000011D008B
S3065000011E008A
S3065000011F0089
S3065000012093F5
S306500001218007
S30650000122A0E6
S306500001231A6B
S306500001246F15
S306500001252063
S306500001268002
S30650000127552C
S306500001281D63
S30650000129710E
S3065000012A86F8
S3065000012BCEAF
S3065000012CEF8D
S3065000012D007B
S3065000012E007A
S3065000012F1564
S3065000013097E1
S306500001310077
S306500001320076
S306500001330075
S3065000013493E1
S3065000013580F3
S306500001366012
S306500001371958
S306500001386F01
S30650000139105F
S3065000013AA0CE
S3065000013B72FB
S3065000013C1D4F
S3065000013D71FA
S3065000013E86E4
S3065000013FCE9B
S30650000140EF79
S306500001410067
S30650000142C0A6
S306500001431352
S3065000014497CD
S306500001450063
S306500001460062
S306500001470061
S3065000014893CD
S3065000014980DF
S3065000014A203E
S3065000014B1845
S3065000014C6FED
S3065000014D104B
S3065000014EE07A
S3065000014F77E2
S306500001501D3B
S3065000015171E6
S3065000015286D0
S30650000153CE87
S30650000154EF65
S306500001550053
S3065000015680D2
S30650000157123F
S3065000015897B9
S30650000159004F
S3065000015A004E
S3065000015B004D
S3065000015C93B9
S3065000015D80CB
S3065000015EE06A
S3065000015F1633
S306500001606FD9
S306500001612027
S30650000162E066
S3065000016351F4
S306500001641D27
S3065000016571D2
S3065000016686BC
S30650000167CE73
S30650000168EF51
S30650000169003F
S3065000016A40FE
S3065000016B112C
S3065000016C97A5
S3065000016D003B
S3065000016E003A
S3065000016F0039
S3065000017093A5
S3065000017180B7
S30650000172A096
S306500001731520
S306500001746FC5
S306500001752013
S30650000176C072
S3065000017750E1
S306500001781D13
S3065000017971BE
S3065000017A86A8
S3065000017BCE5F
S3065000017CEF3D
S3065000017D002B
S3065000017E002A
S3065000017F1019
S306500001809791
S306500001810027
S306500001820026
S306500001830025
S306500001849391
S3065000018580A3
S3065000018660C2
S30650000187140D
S306500001886FB1
S3065000018920FF
S3065000018AA07E
S3065000018B4FCE
S3065000018C1DFF
S3065000018D71AA
S3065000018E8694
S3065000018FCE4B
S30650000190EF29
S306500001910017
S30650000192C056
S306500001930E07
S30650000194977D
S306500001950013
S306500001960012
S306500001970011
S30650000198937D
S30650000199808F
S3065000019A20EE
S3065000019B13FA
S3065000019C6F9D
S3065000019D20EB
S3065000019E808A
S3065000019F4EBB
S306500001A01DEB
S306500001A17196
S306500001A28680
S306500001A3CE37
S306500001A4EF15
S306500001A50003
S306500001A68082
S306500001A70DF4
S306500001A89769
S306500001A900FF
S306500001AA00FE
S306500001AB00FD
S306500001AC9369
S306500001AD807B
S306500001AEE01A
S306500001AF11E8
S306500001B06F89
S306500001B120D7
S306500001B26096
S306500001B34DA8
S306500001B41DD7
S306500001B57182
S306500001B6866C
S306500001B7CE23
S306500001B8EF01
S306500001B900EF
S306500001BA40AE
S306500001BB0CE1
S306500001BC9755
S306500001BD00EB
S306500001BE00EA
S306500001BF00E9
S306500001C09355
S306500001C18067
S306500001C2A046
S306500001C310D5
S306500001C46F75
S306500001C510D3
S306500001C66082
S306500001C77B66
S306500001C81DC3
S306500001C9716E
S306500001CA8658
S306500001CBCE0F
S306500001CCEFED
S306500001CD00DB
S306500001CE00DA
S306500001CF0BCE
S306500001D09741
S306500001D100D7
S306500001D200D6
S306500001D300D5
S306500001D49341
S306500001D58053
S306500001D66072
S306500001D70FC2
S306500001D86F61
S306500001D920AF
S306500001DA00CE
S306500001DB4B82
S306500001DC1DAF
S306500001DD715A
S306500001DE8644
S306500001DFCEFB
S306500001E0EFD9
S306500001E100C7
S306500001E2C006
S306500001E309BC
S306500001E4972D
S306500001E500C3
S306500001E600C2
S306500001E700C1
S306500001E8932D
S306500001E9803F
S306500001EA209E
S306500001EB0EAF
S306500001EC6F4D
S306500001ED10AB
S306500001EE902A
S306500001EF18A1
S306500001F01D9B
S306500001F17146
S306500001F28630
S306500001F3CEE7
S306500001F4EFC5
S306500001F500B3
S306500001F68032
S306500001F708A9
S306500001F89719
S306500001F900AF
S306500001FA00AE
S306500001FB00AD
S306500001FC9319
S306500001FD802B
S306500001FEE0CA
S306500001FF0C9D
S306500002006F38
S306500002012086
S30650000202A005
S30650000203485C
S306500002041D86
S306500002057131
S30650000206861B
S30650000207CED2
S30650000208EFB0
S30650000209009E
S3065000020A405D
S3065000020B0795
S3065000020C9704
S3065000020D009A
S3065000020E0099
S3065000020F0098
S306500002109304
S306500002118016
S30650000212A0F5
S306500002130B89
S306500002146F24
S306500002152072
S306500002168011
S306500002174749
S306500002181D72
S30650000219711D
S3065000021A8607
S3065000021BCEBE
S3065000021CEF9C
S3065000021D008A
S3065000021E0089
S3065000021F0682
S3065000022097F0
S306500002210086
S306500002220085
S306500002230084
S3065000022493F0
S306500002258002
S306500002266021
S306500002270A76
S306500002286F10
S30650000229106E
S3065000022AB0CD
S3065000022B1963
S3065000022C1D5E
S3065000022D7109
S3065000022E86F3
S3065000022FCEAA
S30650000230EF88
S306500002310076
S30650000232C0B5
S306500002330470
S3065000023497DC
S306500002350072
S306500002360071
S306500002370070
S3065000023893DC
S3065000023980EE
S3065000023A204D
S3065000023B0963
S3065000023C6FFC
S3065000023D204A
S3065000023E2049
S3065000023F4523
S306500002401D4A
S3065000024171F5
S3065000024286DF
S30650000243CE96
S30650000244EF74
S306500002450062
S3065000024680E1
S30650000247035D
S3065000024897C8
S30650000249005E
S3065000024A005D
S3065000024B005C
S3065000024C93C8
S3065000024D80DA
S3065000024EE079
S3065000024F0751
S306500002506FE8
S306500002511046
S30650000252B0A5
S306500002531C38
S306500002541D36
S3065000025571E1
S3065000025686CB
S30650000257CE82
S30650000258EF60
S30650000259004E
S3065000025A400D
S3065000025B024A
S3065000025C97B4
S3065000025D004A
S3065000025E0049
S3065000025F0048
S3065000026093B4
S3065000026180C6
S30650000262A0A5
S30650000263063E
S306500002646FD4
S306500002652022
S30650000266C081
S3065000026742FE
S306500002681D22
S3065000026971CD
S3065000026A86B7
S3065000026BCE6E
S3065000026CEF4C
S3065000026D003A
S3065000026E0039
S3065000026F0137
S3065000027097A0
S306500002710036
S306500002720035
S306500002730034
S3065000027493A0
S3065000027580B2
S3065000027660D1
S30650000277052B
S306500002786FC0
S30650000279101E
S3065000027AD05D
S3065000027B2408
S3065000027C0E1D
S3065000027DC06A
S3065000027E1217
S3065000027FC266
S306500002801611
S30650000281C462
S306500002821A0B
S30650000283C65E
S306500002841E05
S30650000285C85A
S306500002862AF7
S30650000287CA56
S306500002882EF1
S30650000289CC52
S3065000028A32EB
S3065000028BCE4E
S3065000028C36E5
S3065000028DD04A
S3065000028E3ADF
S3065000028FD246
S306500002903ED9
S30650000291D442
S3065000029242D3
S30650000293D63E
S3065000029446CD
S30650000295D83A
S30650000296729F
S30650000297DA36
S306500002987699
S30650000299DC32
S3065000029A7A93
S3065000029BDE2E
S3065000029CFE0D
S3065000029DC04A
S3065000029E7396
S3065000029F2EDA
S306500002A00007
S306500002A17B8B
S306500002A2F312
S306500002A32ED6
S306500002A410F3
S306500002A57B87
S306500002A6738E
S306500002A72FD1
S306500002A820DF
S306500002A97B83
S306500002AAF20B
S306500002ABC23A
S306500002ACF605
S306500002ADC436
S306500002AEFAFF
S306500002AFC632
S306500002B07384
S306500002B12EC8
S306500002B240B5
S306500002B37B79
S306500002B4F300
S306500002B52EC4
S306500002B650A1
S306500002B77B75
S306500002B8737C
S306500002B92FBF
S306500002BA608D
S306500002BB7B71
S306500002BCF2F9
S306500002BDC822
S306500002BEF6F3
S306500002BFCA1E
S306500002C0FAED
S306500002C1CC1A
S306500002C2677E
S306500002C38064
S306500002C400E3
S306500002C500E2
S306500002C6469B
S306500002C74E92
S306500002C8D609
S306500002C94E90
S306500002CA6677
S306500002CB4F8D
S306500002CC7368
S306500002CD10CA
S306500002CE4E8B
S306500002CF7B5D
S306500002D07364
S306500002D19046
S306500002D25E77
S306500002D37B59
S306500002D47360
S306500002D510C2
S306500002D66F62
S306500002D77B55
S306500002D816B9
S306500002D94E80
S306500002DAA627
S306500002DB4E7E
S306500002DC3695
S306500002DD4F7B
S306500002DE7356
S306500002DF10B8
S306500002E00EB9
S306500002E17B4B
S306500002E27352
S306500002E39034
S306500002E41EA5
S306500002E57B47
S306500002E6734E
S306500002E710B0
S306500002E82F90
S306500002E97B43
S306500002EA823B
S306500002EB417B
S306500002EC12A9
S306500002ED4278
S306500002EEA217
S306500002EF4276
S306500002F03285
S306500002F14373
S306500002F2C2F3
S306500002F34371
S306500002F45261
S306500002F5456D
S306500002F6E2CF
S306500002F7456B
S306500002F8723D
S306500002F94668
S306500002FA822B
S306500002FB5656
S306500002FC1299
S306500002FD5753
S306500002FEA207
S306500002FF5751
S306500003003274
S30650000301584D
S30650000302C2E2
S30650000303584B
S306500003045250
S306500003055E43
S30650000306E2BE
S306500003075E41
S30650000308722C
S306500003095F3E
S3065000030A8616
S3065000030B4F4C
S3065000030CF6A4
S3065000030D4059
S3065000030E2573
S3065000030F6136
S306500003107323
S306500003110095
S306500003120094
S306500003131083
S306500003148210
S306500003158011
S306500003160090
S30650000317008F
S30650000318137B
S30650000319018C
S3065000031A018B
S3065000031BFF8C
S3065000031C2367
S3065000031D2465
S3065000031E8107
S3065000031F0087
S30650000320B7CF
S30650000321077E
S306500003220084
S306500003235132
S30650000324374B
S30650000325047D
S306500003260080
S30650000327512E
S30650000328235B
S30650000329205D
S3065000032A215B
S3065000032B017A
S3065000032C93E7
S3065000032D87F2
S3065000032E0771
S3065000032F0077
S306500003301363
S30650000331096C
S306500003320470
S306500003330073
S30650000334333F
S3065000033589E8
S306500003362749
S30650000337412E
S30650000338135B
S306500003395914
S3065000033A2943
S3065000033B402B
S3065000033C2347
S3065000033D2247
S3065000033E91D7
S3065000033F0067
S306500003402343
S30650000341263F
S306500003421153
S306500003430063
S30650000344134F
S30650000345045D
S30650000346045C
S30650000347005F
S3065000034893CB
S306500003490459
S3065000034A005C
S3065000034B005B
S3065000034C63F7
S3065000034D0C4D
S3065000034E094F
S3065000034F0057
S3065000035083D3
S30650000351272E
S306500003520450
S306500003530053
S3065000035493BF
S3065000035584CD
S30650000356143C
S30650000357004F
S30650000358E767
S3065000035980CD
S3065000035A0745
S3065000035B004B
S3065000035C1337
S3065000035D0445
S3065000035E4404
S3065000035F0047
S30650000360E363
S30650000361182D
S3065000036299AB
S30650000363FE45
S30650000364370B
S30650000365043D
S306500003660040
S3065000036751EE
S30650000368EF4F
S30650000369F04D
S3065000036ADF5D
S3065000036BFA41
S3065000036CB783
S3065000036D0732
S3065000036E0038
S3065000036F51E6
S306500003701323
S30650000371092C
S306500003720430
S306500003730033
S30650000374939F
S3065000037587AA
S306500003760729
S30650000377002F
S3065000037833FB
S3065000037989A4
S3065000037A2705
S3065000037B41EA
S3065000037C1317
S3065000037D59D0
S3065000037E29FF
S3065000037F40E7
S306500003801313
S306500003810421
S306500003820420
S306500003830023
S30650000384938F
S30650000385041D
S306500003860020
S30650000387001F
S3065000038863BB
S306500003890C11
S3065000038A0913
S3065000038B001B
S3065000038C8397
S3065000038D27F2
S3065000038E0414
S3065000038F0017
S306500003909383
S306500003918491
S306500003921400
S306500003930013
S30650000394E72B
S306500003958091
S306500003960709
S30650000397000F
S3065000039813FB
S306500003990409
S3065000039A44C8
S3065000039B000B
S3065000039CE327
S3065000039D18F1
S3065000039E996F
S3065000039FFE09
S306500003A08383
S306500003A120E5
S306500003A2C143
S306500003A30003
S306500003A403FF
S306500003A524DD
S306500003A6817F
S306500003A700FF
S306500003A8837B
S306500003A924D9
S306500003AA41BB
S306500003AB00FB
S306500003AC03F7
S306500003AD29D0
S306500003AE01F7
S306500003AF00F7
S306500003B013E3
S306500003B101F4
S306500003B201F3
S306500003B301F2
S306500003B4678B
S306500003B58071
S306500003B600F0
S306500003B700EF
S306500003B8B737
S306500003B97776
S306500003BA00EC
S306500003BB519A
S306500003BC9357
S306500003BD05E4
S306500003BE05E3
S306500003BF00E7
S306500003C003E3
S306500003C1A540
S306500003C207DD
S306500003C341A2
S306500003C46F73
S306500003C500E1
S306500003C640A0
S306500003C701DE
S306500003C8B727
S306500003C97766
S306500003CA00DC
S306500003CB518A
S306500003CC9347
S306500003CD05D4
S306500003CE05D3
S306500003CF00D7
S306500003D003D3
S306500003D1A530
S306500003D207CD
S306500003D34192
S306500003D46F63
S306500003D500D1
S306500003D610C0
S306500003D70AC5
S306500003D813BB
S306500003D901CC
S306500003DA01CB
S306500003DBFDCE
S306500003DC23A7
S306500003DD22A7
S306500003DE9137
S306500003DF02C5
S306500003E09333
S306500003E107BE
S306500003E26064
S306500003E301C2
S306500003E4932F
S306500003E5843D
S306500003E6B50B
S306500003E700BF
S306500003E8239B
S306500003E92E8F
S306500003EA318B
S306500003EB01BA
S306500003EC2397
S306500003ED2693
S306500003EE11A7
S306500003EF02B5
S306500003F02393
S306500003F12491
S306500003F28133
S306500003F302B1
S306500003F4238F
S306500003F52091
S306500003F6218F
S306500003F703AC
S306500003F8238B
S306500003F92C81
S306500003FA416B
S306500003FB01AA
S306500003FC2387
S306500003FD2A7F
S306500003FE5157
S306500003FF01A6
S306500004002382
S30650000401287C
S306500004026142
S3065000040301A1
S30650000404237E
S30650000405267A
S30650000406712E
S30650000407019D
S30650000408237A
S306500004092478
S3065000040A811A
S3065000040B0199
S3065000040C2376
S3065000040D2276
S3065000040E9106
S3065000040F0195
S306500004109302
S30650000411098B
S30650000412058E
S306500004130092
S30650000414632E
S30650000415FC94
S3065000041697F8
S306500004171A74
S3065000041893FA
S30650000419F498
S3065000041A8407
S3065000041BFF8B
S3065000041C6326
S3065000041DC4C4
S3065000041E0483
S3065000041F2462
S306500004206322
S30650000421E2A2
S30650000422B4CF
S30650000423245E
S30650000424EF92
S306500004250080
S30650000426403F
S30650000427720C
S3065000042893EA
S306500004290775
S3065000042A700B
S3065000042B1F5B
S3065000042C6316
S3065000042DF682
S3065000042E97E0
S3065000042F7006
S3065000043093E2
S30650000431D79D
S3065000043294DF
S306500004330072
S3065000043493DE
S30650000435066A
S30650000436006F
S306500004370866
S30650000438135A
S306500004390567
S3065000043A006B
S3065000043B0466
S3065000043C93D6
S3065000043D0563
S3065000043EF077
S3065000043F0363
S306500004406302
S306500004419ACA
S30650000442075C
S306500004432240
S30650000444372A
S306500004451947
S30650000446005F
S30650000447510D
S30650000448134A
S306500004490953
S3065000044A0952
S3065000044B2832
S3065000044C93C6
S3065000044D96C2
S3065000044E2631
S3065000044F0056
S30650000450B3A2
S30650000451064E
S30650000452D97A
S306500004530052
S30650000454034E
S30650000455A4AC
S306500004564609
S30650000457004E
S3065000045893BA
S3065000045986C6
S3065000045A86C5
S3065000045BFF4B
S3065000045C63E6
S3065000045D8ABE
S3065000045E86C1
S3065000045F2224
S3065000046083C2
S30650000461271D
S3065000046244FF
S306500004630042
S30650000464132E
S30650000465063A
S30650000466F04F
S30650000467003E
S3065000046893AA
S30650000469F745
S3065000046AC774
S3065000046BFF3B
S3065000046C3306
S3065000046D87B1
S3065000046E97A0
S3065000046F40F6
S3065000047063D2
S3065000047140F4
S30650000472E64D
S306500004730230
S3065000047463CE
S3065000047552DE
S306500004760728
S30650000477220C
S30650000478032A
S306500004792408
S3065000047AC467
S3065000047B002A
S3065000047C63C6
S3065000047D8A9E
S3065000047E86A1
S3065000047F2006
S3065000048083A2
S3065000048127FD
S3065000048244DF
S306500004830022
S30650000484938E
S30650000485F729
S30650000486C758
S30650000487FF1F
S3065000048833EA
S306500004898795
S3065000048A9784
S3065000048B40DA
S3065000048CE336
S3065000048D54C4
S3065000048EE631
S3065000048FFE18
S306500004909382
S30650000491868E
S30650000492050E
S306500004930012
S30650000494030E
S3065000049524EC
S306500004960906
S30650000497010D
S3065000049813FA
S306500004990804
S3065000049A8982
S3065000049B000A
S3065000049C63A6
S3065000049D0CFC
S3065000049E0403
S3065000049F49BD
S306500004A08382
S306500004A127DD
S306500004A244BF
S306500004A30002
S306500004A413EE
S306500004A506FA
S306500004A6F00F
S306500004A700FE
S306500004A8936A
S306500004A9F705
S306500004AAC734
S306500004ABFFFB
S306500004AC33C6
S306500004AD8771
S306500004AE9760
S306500004AF40B6
S306500004B06392
S306500004B144B0
S306500004B2E60D
S306500004B344AE
S306500004B423CE
S306500004B52AC6
S306500004B609E6
S306500004B701ED
S306500004B823CA
S306500004B928C4
S306500004BA09E2
S306500004BB01E9
S306500004BC6386
S306500004BD5692
S306500004BE07E0
S306500004BF1EC8
S306500004C013D2
S306500004C107DD
S306500004C2F0F3
S306500004C31FC3
S306500004C4637E
S306500004C56878
S306500004C6F7E8
S306500004C73CA2
S306500004C8934A
S306500004C9D705
S306500004CA37A4
S306500004CB00DA
S306500004CC13C6
S306500004CD8652
S306500004CE17C0
S306500004CF00D6
S306500004D013C2
S306500004D116BE
S306500004D2369D
S306500004D300D2
S306500004D403CE
S306500004D527A9
S306500004D64986
S306500004D700CE
S306500004D8339A
S306500004D906C6
S306500004DAC902
S306500004DB00CA
S306500004DC9336
S306500004DDD7F1
S306500004DE27A0
S306500004DF4086
S306500004E09332
S306500004E105BF
S306500004E210B3
S306500004E300C2
S306500004E403BE
S306500004E5259B
S306500004E606B9
S306500004E700BE
S306500004E8B30A
S306500004E99725
S306500004EAF5C6
S306500004EB00BA
S306500004ECB306
S306500004EDE7D1
S306500004EEE7D0
S306500004EF00B6
S306500004F013A2
S306500004F107AD
S306500004F2862D
S306500004F3FFB3
S306500004F4238E
S306500004F5268A
S306500004F6E4CB
S306500004F700AE
S306500004F8238A
S306500004F92488
S306500004FAA407
S306500004FB00AA
S306500004FC2386
S306500004FD2286
S306500004FEF9AE
S306500004FF00A6
S306500005002381
S306500005012083
S30650000502861C
S3065000050300A1
S30650000504237D
S306500005052679
S306500005068519
S30650000507009D
S306500005081389
S30650000509D7C4
S3065000050A2674
S3065000050B4059
S3065000050C1385
S3065000050D0691
S3065000050E1086
S3065000050F0095
S306500005103361
S30650000511167D
S30650000512E6AC
S306500005130091
S30650000514632D
S30650000515EAA5
S30650000516C7C7
S306500005171A73
S306500005183359
S306500005197714
S3065000051AF694
S3065000051B0089
S3065000051C6325
S3065000051D1473
S3065000051E077F
S3065000051F0283
S306500005201371
S30650000521166D
S30650000522166C
S306500005230081
S3065000052493ED
S30650000525F689
S30650000526C6B8
S30650000527FF7E
S306500005283349
S306500005297704
S3065000052AF684
S3065000052B0079
S3065000052C93E5
S3065000052D86F1
S3065000052E4630
S3065000052F0075
S306500005306311
S306500005311A59
S30650000532076B
S306500005330071
S30650000534135D
S306500005351659
S306500005361658
S30650000537006D
S306500005383339
S3065000053977F4
S3065000053AF674
S3065000053B0069
S3065000053C93D5
S3065000053D86E1
S3065000053E4620
S3065000053F0065
S30650000540E381
S306500005410A59
S30650000542075B
S30650000543FE63
S30650000544134D
S30650000545055A
S30650000546F06E
S30650000547005D
S3065000054893C9
S3065000054998C3
S3065000054A3624
S3065000054B0059
S3065000054CB3A5
S3065000054D88CF
S3065000054E282E
S3065000054F0154
S3065000055093C1
S3065000055185CE
S30650000552084A
S306500005530051
S30650000554133D
S3065000055583CC
S306500005560648
S30650000557004D
S306500005580349
S30650000559A4A7
S3065000055AC585
S3065000055B0049
S3065000055C63E5
S3065000055D9AAD
S3065000055E85C1
S3065000055F0045
S306500005606FD5
S306500005610043
S30650000562C082
S306500005633D04
S3065000056463DD
S306500005655EE1
S306500005660737
S306500005673EFF
S306500005680339
S306500005692417
S3065000056AC476
S3065000056B0039
S3065000056C63D5
S3065000056D88AF
S3065000056E85B1
S3065000056F3CF9
S3065000057083B1
S30650000571270C
S3065000057244EE
S306500005730031
S30650000574939D
S30650000575F738
S30650000576C767
S30650000577FF2E
S3065000057833F9
S3065000057987A4
S3065000057A9793
S3065000057B40E9
S3065000057CE345
S3065000057D54D3
S3065000057EE541
S3065000057FFE27
S3065000058083A1
S3065000058126FD
S30650000582C45E
S306500005830021
S30650000584031D
S3065000058526F9
S30650000586849A
S30650000587001D
S30650000588B369
S306500005890714
S3065000058A9486
S3065000058B0019
S3065000058C9385
S3065000058D68AF
S3065000058E17FF
S3065000058F0015
S30650000590B361
S30650000591858E
S30650000592E72B
S306500005930011
S30650000594937D
S30650000595E42B
S3065000059614FA
S30650000597000D
S3065000059823E9
S3065000059922E9
S3065000059A9476
S3065000059B0009
S3065000059C13F5
S3065000059D8582
S3065000059E09FD
S3065000059F0005
S306500005A023E1
S306500005A126DD
S306500005A2D62C
S306500005A30001
S306500005A423DD
S306500005A5A45B
S306500005A6C638
S306500005A700FD
S306500005A823D9
S306500005A92AD1
S306500005AAF901
S306500005AB00F9
S306500005AC23D5
S306500005AD28CF
S306500005AEF9FD
S306500005AF00F5
S306500005B023D1
S306500005B1A64D
S306500005B207EB
S306500005B301F0
S306500005B423CD
S306500005B5A44B
S306500005B607E7
S306500005B701EC
S306500005B823C9
S306500005B9A249
S306500005BA17D3
S306500005BB01E8
S306500005BC23C5
S306500005BDA047
S306500005BEE501
S306500005BF00E5
S306500005C0EFF5
S306500005C100E3
S306500005C2C022
S306500005C35889
S306500005C413CD
S306500005C505DA
S306500005C6845A
S306500005C700DD
S306500005C86F6D
S306500005C900DB
S306500005CA805A
S306500005CB06D3
S306500005CC9345
S306500005CD04D3
S306500005CE00D6
S306500005CF01D4
S306500005D06371
S306500005D1EAE9
S306500005D2B41E
S306500005D308C9
S306500005D4EFE1
S306500005D500CF
S306500005D6408E
S306500005D75776
S306500005D89339
S306500005D907C4
S306500005DA606A
S306500005DB00C9
S306500005DC9335
S306500005DD06C1
S306500005DE20A6
S306500005DF00C5
S306500005E0378D
S306500005E119AA
S306500005E200C2
S306500005E35170
S306500005E413AD
S306500005E509B6
S306500005E609B5
S306500005E72895
S306500005E89329
S306500005E99724
S306500005EA2793
S306500005EB00B9
S306500005ECB305
S306500005ED07B0
S306500005EEF9BD
S306500005EF00B5
S306500005F003B1
S306500005F1A40F
S306500005F2476B
S306500005F300B1
S306500005F4139D
S306500005F58728
S306500005F68727
S306500005F7FFAE
S306500005F86349
S306500005F90C9F
S306500005FAE4C6
S306500005FB3475
S306500005FC8325
S306500005FD2780
S306500005FE4462
S306500005FF00A5
S306500006008320
S30650000601267C
S30650000602C4DD
S3065000060300A0
S30650000604930C
S30650000605F7A7
S30650000606C7D6
S30650000607FF9D
S30650000608B3E8
S306500006090793
S3065000060AF4A5
S3065000060B0098
S3065000060C0394
S3065000060DA7EF
S3065000060E474E
S3065000060F0094
S306500006100390
S30650000611266C
S30650000612840D
S306500006130090
S30650000614137C
S306500006156727
S306500006161776
S30650000617008C
S306500006182368
S306500006192664
S3065000061AD6B3
S3065000061B0088
S3065000061C1374
S3065000061D8501
S3065000061E097C
S3065000061F0084
S306500006202360
S30650000621A4DE
S30650000622C6BB
S306500006230080
S30650000624235C
S30650000625A2DC
S30650000626E796
S30650000627007C
S30650000628EF8C
S30650000629007A
S3065000062A4039
S3065000062B5226
S3065000062C1364
S3065000062D0571
S3065000062E84F1
S3065000062F0074
S3065000063083F0
S306500006312052
S30650000632C1B0
S30650000633026E
S30650000634036C
S30650000635244A
S3065000063681EC
S30650000637026A
S3065000063883E8
S306500006392446
S3065000063A4128
S3065000063B0266
S3065000063C0364
S3065000063D293D
S3065000063E0164
S3065000063F0262
S3065000064083E0
S306500006412939
S30650000642C1A0
S30650000643015F
S30650000644035C
S306500006452A34
S3065000064681DC
S30650000647015B
S3065000064883D8
S306500006492A30
S3065000064A4118
S3065000064B0157
S3065000064C0354
S3065000064D2B2B
S3065000064E0154
S3065000064F0153
S3065000065083D0
S306500006512B27
S30650000652C190
S306500006530050
S30650000654034C
S306500006552C22
S3065000065681CC
S30650000657004C
S3065000065883C8
S306500006592C1E
S3065000065A4108
S3065000065B0048
S3065000065C1334
S3065000065D0145
S3065000065E0144
S3065000065F0341
S3065000066067DC
S3065000066180C2
S306500006620041
S306500006630040
S3065000066493AC
S306500006650737
S30650000666C07D
S30650000667003C
S306500006682318
S30650000669A09A
S3065000066AF940
S3065000066B0038
S3065000066C1324
S3065000066D0531
S3065000066E0035
S3065000066F0034
S306500006706FC4
S30650000671F042
S306500006721F12
S30650000673FC34
S30650000674131C
S306500006750727
S3065000067640ED
S30650000677002C
S3065000067863C8
S306500006796CBE
S3065000067AF732
S3065000067B1E0A
S3065000067C9394
S3065000067DD551
S3065000067E64C1
S3065000067F0024
S306500006801310
S30650000681859D
S30650000682958C
S30650000683031D
S30650000684938C
S306500006851608
S306500006861508
S30650000687001C
S306500006889388
S306500006898595
S3065000068A8594
S3065000068B0315
S3065000068C6FA8
S3065000068DF026
S3065000068E9F76
S3065000068FDB39
S306500006909380
S30650000691060C
S30650000692050C
S306500006930010
S306500006946FA0
S30650000695F01E
S306500006961FEE
S30650000697E02C
S30650000698B358
S306500006990703
S3065000069AF415
S3065000069B0008
S3065000069C0304
S3065000069DA75F
S3065000069E47BE
S3065000069F0004
S306500006A08380
S306500006A126DC
S306500006A2C43D
S306500006A30000
S306500006A46F90
S306500006A5F00E
S306500006A6DF1E
S306500006A7F606
S306500006A8B348
S306500006A907F3
S306500006AAF405
S306500006AB00F8
S306500006AC03F4
S306500006ADA74F
S306500006AE47AE
S306500006AF00F4
S306500006B013E0
S306500006B1856D
S306500006B209E8
S306500006B300F0
S306500006B413DC
S306500006B56787
S306500006B617D6
S306500006B700EC
S306500006B823C8
S306500006B9A248
S306500006BAE702
S306500006BB00E8
S306500006BCEFF8
S306500006BD00E6
S306500006BE00E5
S306500006BF499B
S306500006C013D0
S306500006C105DD
S306500006C2845D
S306500006C300E0
S306500006C46F70
S306500006C5F0EE
S306500006C6DFFE
S306500006C7F6E6
S306500006C803D8
S306500006C924B6
S306500006CA8950
S306500006CB00D8
S306500006CC03D4
S306500006CD2AAC
S306500006CE4491
S306500006CF00D4
S306500006D09340
S306500006D17A58
S306500006D2CA07
S306500006D3FFD1
S306500006D4636C
S306500006D5E8E6
S306500006D69A33
S306500006D700CC
S306500006D8B318
S306500006D98743
S306500006DA9A2F
S306500006DB4088
S306500006DC13B4
S306500006DD07BF
S306500006DEF0D5
S306500006DF00C4
S306500006E06360
S306500006E1447E
S306500006E2F7CA
S306500006E316AA
S306500006E4B708
S306500006E57747
S306500006E600BD
S306500006E7516B
S306500006E803B8
S306500006E9A713
S306500006EA8732
S306500006EB4672
S306500006ECB700
S306500006ED7C3A
S306500006EE00B5
S306500006EF5163
S306500006F08330
S306500006F1A60C
S306500006F24C65
S306500006F34070
S306500006F4337C
S306500006F58727
S306500006F6E4C9
S306500006F700AC
S306500006F89318
S306500006F907A3
S306500006FAF0B9
S306500006FBFFA9
S306500006FC3374
S306500006FD0B9B
S306500006FE5451
S306500006FF01A3
S30650000700138F
S306500007010A97
S306500007020799
S30650000703019E
S30650000704633B
S306500007058C11
S30650000706F6A6
S30650000707009B
S30650000708B7E3
S306500007091683
S3065000070A0098
S3065000070B0097
S3065000070C1383
S3065000070D8A0B
S3065000070EF69E
S3065000070F0093
S30650000710B3DF
S30650000711068B
S306500007124749
S30650000713018E
S306500007143757
S30650000715F796
S30650000716FF8D
S30650000717FF8C
S306500007183357
S30650000719FA8F
S3065000071AE6A2
S3065000071B0087
S3065000071C1373
S3065000071D0580
S3065000071E0A7A
S3065000071F0083
S30650000720EF93
S306500007210081
S306500007225030
S30650000723324D
S3065000072493EB
S306500007250776
S30650000726F08C
S30650000727FF7C
S3065000072893E7
S306500007290B6E
S3065000072A0573
S3065000072B0077
S3065000072C6313
S3065000072D066F
S3065000072EF57F
S3065000072F284B
S30650000730630F
S30650000731620F
S30650000732650B
S306500007332946
S306500007343737
S306500007357CF1
S30650000736006C
S30650000737511A
S306500007381357
S306500007390C5D
S3065000073A8CDC
S3065000073B4126
S3065000073C0363
S3065000073D273E
S3065000073E0C58
S3065000073F0063
S30650000740332F
S30650000741075A
S30650000742EA76
S30650000743005F
S30650000744233B
S30650000745203D
S30650000746EC70
S30650000747005B
S3065000074863F7
S306500007490059
S3065000074A7BDD
S3065000074B3720
S3065000074C83D3
S3065000074DA6AF
S3065000074E4C08
S3065000074F4013
S3065000075093BF
S30650000751074A
S30650000752F060
S30650000753FF50
S3065000075463EB
S306500007558EBF
S30650000756F656
S306500007573615
S306500007583317
S306500007598BBE
S3065000075A6BDD
S3065000075B4106
S3065000075C3313
S3065000075D073E
S3065000075EEB59
S3065000075F0043
S30650000760231F
S306500007612021
S30650000762EC54
S30650000763003F
S30650000764132B
S30650000765F746
S306500007667BC1
S30650000767003B
S30650000768B783
S306500007691722
S3065000076A0038
S3065000076B0037
S3065000076C63D3
S3065000076D0A2B
S3065000076E072D
S3065000076F0033
S30650000770B37F
S306500007718BA6
S30650000772EB45
S3065000077340EF
S30650000774939B
S3065000077587A6
S3065000077687A5
S30650000777002B
S306500007789397
S306500007798B9E
S3065000077A8B9D
S3065000077B0027
S3065000077CB373
S3065000077D879E
S3065000077EE73D
S3065000077F40E3
S3065000078037EB
S30650000781170A
S306500007820020
S30650000783001F
S30650000784130B
S306500007850716
S30650000786F725
S30650000787FF1C
S3065000078833E7
S306500007898A8F
S3065000078A4BCD
S3065000078B0116
S3065000078C33E3
S3065000078D7A9B
S3065000078EEA2A
S3065000078F0013
S3065000079033DF
S306500007918A87
S3065000079247C9
S3065000079341CE
S3065000079413FB
S306500007950508
S306500007960A02
S30650000797000B
S30650000798EF1B
S306500007990009
S3065000079AD038
S3065000079B2ADD
S3065000079C9373
S3065000079D07FE
S3065000079EF014
S3065000079FFF04
S306500007A0639F
S306500007A102FF
S306500007A2F50B
S306500007A332CD
S306500007A4B34B
S306500007A507F6
S306500007A67587
S306500007A741BA
S306500007A8B347
S306500007A98772
S306500007AA47B1
S306500007AB01F6
S306500007AC9363
S306500007ADE70E
S306500007AE17DD
S306500007AF00F3
S306500007B003EF
S306500007B127CA
S306500007B20CE4
S306500007B300EF
S306500007B423CB
S306500007B524C9
S306500007B67973
S306500007B701EA
S306500007B833B7
S306500007B907E2
S306500007BAEAFE
S306500007BB00E7
S306500007BC23C3
S306500007BD20C5
S306500007BEECF8
S306500007BF00E3
S306500007C023BF
S306500007C1A23F
S306500007C2FBE5
S306500007C300DF
S306500007C4637B
S306500007C50CD1
S306500007C624B8
S306500007C703D8
S306500007C813C7
S306500007C906D3
S306500007CAF0E8
S306500007CB00D7
S306500007CC6373
S306500007CD765F
S306500007CE567E
S306500007CF29AA
S306500007D0834F
S306500007D126AB
S306500007D2448C
S306500007D300CF
S306500007D4933B
S306500007D58746
S306500007D64A82
S306500007D7FFCC
S306500007D89337
S306500007D9F7D2
S306500007DA8741
S306500007DBFFC8
S306500007DC9333
S306500007DDF6CF
S306500007DE16AE
S306500007DF00C3
S306500007E0B30F
S306500007E105BC
S306500007E2F4CC
S306500007E300BF
S306500007E413AB
S306500007E505B8
S306500007E6506C
S306500007E700BB
S306500007E8B307
S306500007E9E6D3
S306500007EAF6C2
S306500007EB00B7
S306500007EC2393
S306500007ED2293
S306500007EED4E0
S306500007EF00B3
S306500007F0238F
S306500007F1A20F
S306500007F2A50B
S306500007F300AF
S306500007F4238B
S306500007F5A409
S306500007F6A507
S306500007F700AB
S306500007F86347
S306500007F96247
S306500007FAF6B2
S306500007FB2E79
S306500007FCB7EF
S306500007FD772E
S306500007FE00A4
S306500007FF5152
S30650000800831E
S30650000801A6FA
S306500008024758
S306500008034658
S30650000804633A
S30650000805F4A8
S30650000806E6B5
S30650000807009A
S306500008082376
S30650000809A2F6
S3065000080AE7B0
S3065000080B4650
S3065000080CB7DE
S3065000080D771D
S3065000080E0093
S3065000080F5141
S30650000810830E
S30650000811A6EA
S306500008120788
S306500008134648
S30650000814038A
S306500008152468
S306500008168902
S30650000817008A
S306500008186326
S30650000819F494
S3065000081AE6A1
S3065000081B0086
S3065000081C2362
S3065000081DA0E4
S3065000081EE79C
S3065000081F463C
S30650000820037E
S306500008212759
S30650000822443B
S30650000823007E
S30650000824136A
S306500008257705
S30650000826C7B4
S30650000827FF7B
S30650000828B3C6
S306500008290771
S3065000082A97E0
S3065000082B4036
S3065000082C6312
S3065000082D660E
S3065000082E97DC
S3065000082F0072
S30650000830135E
S306500008310769
S30650000832F07F
S30650000833006E
S30650000834630A
S306500008354A22
S30650000836F774
S30650000837006A
S306500008381356
S3065000083985E3
S3065000083A095E
S3065000083B0066
S3065000083CEF76
S3065000083D0064
S3065000083E0063
S3065000083F3131
S30650000840134E
S30650000841055B
S30650000842005F
S30650000843005E
S306500008446FEE
S30650000845F06C
S30650000846DF7C
S30650000847DE7C
S306500008483326
S306500008490751
S3065000084A94C3
S3065000084B0056
S3065000084C93C2
S3065000084DE76D
S3065000084E173C
S3065000084F0052
S3065000085093BE
S30650000851E46C
S30650000852143B
S30650000853004E
S30650000854232A
S30650000855222A
S3065000085694B7
S30650000857004A
S306500008581336
S3065000085985C3
S3065000085A093E
S3065000085B0046
S3065000085C2322
S3065000085D2420
S3065000085EE95A
S3065000085F0042
S30650000860231E
S30650000861221E
S30650000862F748
S30650000863003E
S30650000864EF4E
S30650000865003C
S3065000086680BB
S306500008672E0C
S306500008681326
S306500008690533
S3065000086A84B3
S3065000086B0036
S3065000086C6FC6
S3065000086DF044
S3065000086E5FD4
S3065000086FDC56
S30650000870131E
S306500008710729
S3065000087240EF
S30650000873012D
S3065000087463CA
S306500008757EAE
S30650000876F734
S30650000877101A
S306500008781316
S306500008790721
S3065000087A40E7
S3065000087B0521
S3065000087C63C2
S3065000087D60C4
S3065000087EF72C
S3065000087F1A08
S30650000880938E
S30650000881D54B
S30650000882C45B
S30650000883001E
S30650000884130A
S306500008858597
S30650000886F526
S306500008870614
S306500008889386
S306500008891602
S3065000088A1502
S3065000088B0016
S3065000088C9382
S3065000088D858F
S3065000088EE52E
S3065000088F060C
S306500008906FA2
S30650000891F020
S306500008925FB0
S30650000893BB53
S3065000089413FA
S30650000895D735
S306500008969774
S30650000897000A
S3065000089813F6
S306500008990602
S3065000089A40C7
S3065000089B0006
S3065000089C63A2
S3065000089D7292
S3065000089EE61D
S3065000089F10F2
S306500008A013EE
S306500008A106FA
S306500008A240BF
S306500008A301FD
S306500008A4639A
S306500008A56498
S306500008A6E615
S306500008A71EDC
S306500008A89366
S306500008A905F3
S306500008AAC730
S306500008AB05F1
S306500008AC13E2
S306500008AD06EE
S306500008AEB73C
S306500008AF05ED
S306500008B0935E
S306500008B1955B
S306500008B215DA
S306500008B300EE
S306500008B4935A
S306500008B59557
S306500008B625C6
S306500008B700EA
S306500008B8B336
S306500008B905E3
S306500008BAB92E
S306500008BB00E6
S306500008BC03E2
S306500008BDA73D
S306500008BE05DE
S306500008BF00E2
S306500008C0934E
S306500008C1855B
S306500008C2855A
S306500008C3FFDF
S306500008C4637A
S306500008C58A52
S306500008C6E5F6
S306500008C716C4
S306500008C803D6
S306500008C926B2
S306500008CA4790
S306500008CB00D6
S306500008CC13C2
S306500008CD765E
S306500008CEC60D
S306500008CFFFD3
S306500008D0636E
S306500008D1F6DA
S306500008D2C708
S306500008D300CE
S306500008D403CA
S306500008D527A5
S306500008D68744
S306500008D700CA
S306500008D8E3E6
S306500008D99830
S306500008DAE5E2
S306500008DBFEC8
S306500008DC8342
S306500008DD259F
S306500008DEC7FC
S306500008DF00C2
S306500008E0833E
S306500008E12799
S306500008E24976
S306500008E300BE
S306500008E4239A
S306500008E52696
S306500008E6B407
S306500008E700BA
S306500008E82396
S306500008E92494
S306500008EAE4D3
S306500008EB00B6
S306500008EC2392
S306500008EDA410
S306500008EE852E
S306500008EF00B2
S306500008F0238E
S306500008F1268A
S306500008F28728
S306500008F300AE
S306500008F46F3E
S306500008F5F0BC
S306500008F65F4C
S306500008F7C1E9
S306500008F8B3F6
S306500008F907A1
S306500008FA9413
S306500008FB00A6
S306500008FC1392
S306500008FD663E
S306500008FE178C
S306500008FF00A2
S30650000900B3ED
S306500009018619
S30650000902E7B7
S30650000903009D
S306500009049309
S30650000905E4B7
S306500009061486
S306500009070099
S306500009082375
S306500009092275
S3065000090A9402
S3065000090B0095
S3065000090C1381
S3065000090D850E
S3065000090E0989
S3065000090F0091
S30650000910236D
S306500009112A65
S30650000912F995
S30650000913008D
S306500009142369
S306500009152863
S30650000916F991
S306500009170089
S306500009182365
S30650000919A6E1
S3065000091A077F
S3065000091B0184
S3065000091C2361
S3065000091DA4DF
S3065000091E077B
S3065000091F0180
S30650000920235D
S30650000921A2DD
S30650000922C7B7
S30650000923007D
S306500009242359
S30650000925A0DB
S30650000926E694
S306500009270079
S30650000928EF89
S306500009290077
S3065000092A4036
S3065000092B2253
S3065000092C1361
S3065000092D056E
S3065000092E84EE
S3065000092F0071
S306500009306F01
S30650000931F07F
S306500009321F4F
S30650000933D09D
S3065000093483E9
S306500009352744
S306500009364921
S306500009370069
S306500009386FF9
S30650000939F077
S3065000093A1F47
S3065000093BBDA8
S3065000093C1351
S3065000093D0360
S3065000093E134F
S3065000093F0061
S3065000094093CD
S3065000094177E8
S30650000942332B
S30650000943005D
S3065000094493C9
S3065000094585D6
S3065000094685D5
S306500009470059
S30650000948E375
S3065000094998BF
S3065000094A074F
S3065000094BC095
S3065000094C6FE5
S3065000094D0053
S3065000094E80D2
S3065000094F0849
S30650000950034D
S30650000951A4AB
S30650000952C787
S30650000953004D
S3065000095493B9
S3065000095586C5
S306500009562624
S306500009570049
S30650000958E365
S306500009598EB9
S3065000095A87BF
S3065000095BB293
S3065000095C6FD5
S3065000095DF053
S3065000095E1F23
S3065000095FCA77
S30650000960B38D
S306500009610738
S30650000962F44A
S30650000963003D
S306500009640339
S30650000965A794
S3065000096647F3
S306500009670039
S3065000096883B5
S306500009692611
S3065000096AC472
S3065000096B0035
S3065000096C0331
S3065000096D260D
S3065000096E84AE
S3065000096F0031
S30650000970131D
S3065000097167C8
S306500009721717
S30650000973002D
S306500009742309
S30650000975A289
S30650000976E743
S306500009770029
S306500009781315
S3065000097985A2
S3065000097A091D
S3065000097B0025
S3065000097C2301
S3065000097D26FD
S3065000097ED64C
S3065000097F0021
S3065000098023FD
S30650000981A47B
S30650000982C658
S30650000983001D
S30650000984EF2D
S30650000985001B
S30650000986809A
S306500009871CFD
S306500009881305
S306500009890512
S3065000098A8492
S3065000098B0015
S3065000098C6FA5
S3065000098DF023
S3065000098E5FB3
S3065000098FCA47
S3065000099013FD
S30650000991858A
S30650000992C747
S306500009930508
S306500009949379
S306500009958586
S30650000996B753
S306500009970504
S306500009989375
S3065000099916F1
S3065000099A15F1
S3065000099B0005
S3065000099C6F95
S3065000099DF013
S3065000099E9F63
S3065000099FAA57
S306500009A013ED
S306500009A1D629
S306500009A26797
S306500009A300FD
S306500009A49369
S306500009A505F6
S306500009A69664
S306500009A703F6
S306500009A89365
S306500009A99562
S306500009AA15E1
S306500009AB00F5
S306500009AC13E1
S306500009AD06ED
S306500009AE866C
S306500009AF03EE
S306500009B06F81
S306500009B1F0FF
S306500009B25F8F
S306500009B3F0FD
S306500009B4E309
S306500009B500EB
S306500009B624C6
S306500009B7D910
S306500009B803E5
S306500009B924C3
S306500009BA895D
S306500009BB00E5
S306500009BC03E1
S306500009BD27BC
S306500009BE449E
S306500009BF00E1
S306500009C013CD
S306500009C17768
S306500009C2C717
S306500009C3FFDE
S306500009C46F6D
S306500009C5F0EB
S306500009C65F7B
S306500009C7E6F3
S306500009C88355
S306500009C9A730
S306500009CA884E
S306500009CB00D5
S306500009CC9341
S306500009CD864D
S306500009CEF6DC
S306500009CFFFD2
S306500009D0636D
S306500009D1903F
S306500009D2F8D6
S306500009D316B7
S306500009D49339
S306500009D5F7D4
S306500009D63694
S306500009D700C9
S306500009D89335
S306500009D9883F
S306500009DA883E
S306500009DBFFC6
S306500009DCE3E1
S306500009DD962D
S306500009DE07BB
S306500009DFFEC3
S306500009E0833D
S306500009E12798
S306500009E24975
S306500009E300BD
S306500009E413A9
S306500009E54774
S306500009E6F6C4
S306500009E7FFBA
S306500009E8B305
S306500009E97740
S306500009EAF7BF
S306500009EB00B5
S306500009EC2391
S306500009ED2291
S306500009EEF9B9
S306500009EF00B1
S306500009F0139D
S306500009F11699
S306500009F21698
S306500009F300AD
S306500009F4E3C9
S306500009F5EAC1
S306500009F6C7E3
S306500009F7CCDD
S306500009F8E3C5
S306500009F9089F
S306500009FA06A0
S306500009FBCCD9
S306500009FC3371
S306500009FD772C
S306500009FEF6AC
S306500009FF00A1
S30650000A00930C
S30650000A010698
S30650000A02039A
S30650000A03009C
S30650000A04E3B8
S30650000A051288
S30650000A060792
S30650000A07B4E4
S30650000A081384
S30650000A091680
S30650000A0A167F
S30650000A0B0094
S30650000A0C3360
S30650000A0D771B
S30650000A0EF69B
S30650000A0F0090
S30650000A1093FC
S30650000A118608
S30650000A124647
S30650000A13008C
S30650000A14E3A8
S30650000A150A80
S30650000A160782
S30650000A17FE8A
S30650000A186F18
S30650000A19F096
S30650000A1A1F66
S30650000A1BB3D1
S30650000A1C1370
S30650000A1D077B
S30650000A1E4041
S30650000A1F156B
S30650000A20631C
S30650000A21621C
S30650000A22F786
S30650000A230478
S30650000A2493E8
S30650000A25D5A5
S30650000A26F485
S30650000A270078
S30650000A281364
S30650000A2985F1
S30650000A2A85F0
S30650000A2B076D
S30650000A2C93E0
S30650000A2D165C
S30650000A2E155C
S30650000A2F0070
S30650000A3093DC
S30650000A3185E9
S30650000A3275F8
S30650000A330765
S30650000A346FFC
S30650000A35F07A
S30650000A361F4A
S30650000A37A1C7
S30650000A380364
S30650000A39273F
S30650000A3A491C
S30650000A3B0064
S30650000A3C1350
S30650000A3D560C
S30650000A3E263B
S30650000A3F4020
S30650000A4093CC
S30650000A410757
S30650000A42104D
S30650000A43005C
S30650000A44B3A8
S30650000A4597C3
S30650000A46C792
S30650000A470058
S30650000A48B3A4
S30650000A49E76F
S30650000A4AE76E
S30650000A4B0054
S30650000A4C2330
S30650000A4D2230
S30650000A4EF958
S30650000A4F0050
S30650000A50133C
S30650000A5187C7
S30650000A520548
S30650000A53004C
S30650000A546FDC
S30650000A55F05A
S30650000A561F2A
S30650000A57E95F
S30650000A5893B4
S30650000A59073F
S30650000A5A1035
S30650000A5B0044
S30650000A5C2320
S30650000A5DA2A0
S30650000A5EFB46
S30650000A5F0040
S30650000A606FD0
S30650000A61F04E
S30650000A629F9E
S30650000A63DD5F
S30650000A641328
S30650000A650733
S30650000A6640F9
S30650000A6755E3
S30650000A6893A4
S30650000A690630
S30650000A6AE055
S30650000A6B0F25
S30650000A6C1320
S30650000A6D052D
S30650000A6EF041
S30650000A6F0729
S30650000A70939C
S30650000A710529
S30650000A72E04D
S30650000A730725
S30650000A74E348
S30650000A7568C2
S30650000A76F732
S30650000A779C8C
S30650000A789394
S30650000A79D551
S30650000A7A2401
S30650000A7B0123
S30650000A7C1310
S30650000A7D859D
S30650000A7ED54C
S30650000A7F0719
S30650000A80938C
S30650000A811608
S30650000A821508
S30650000A83001C
S30650000A849388
S30650000A858595
S30650000A86C554
S30650000A870711
S30650000A886FA8
S30650000A89F026
S30650000A8ADF36
S30650000A8B9B79
S30650000A8C1300
S30650000A8D060C
S30650000A8E40D1
S30650000A8F050B
S30650000A9063AC
S30650000A9160AE
S30650000A92E627
S30650000A930606
S30650000A9413F8
S30650000A95D634
S30650000A96C742
S30650000A970008
S30650000A989374
S30650000A990501
S30650000A9AF60F
S30650000A9B06FE
S30650000A9C9370
S30650000A9D956D
S30650000A9E15EC
S30650000A9F0000
S30650000AA013EC
S30650000AA106F8
S30650000AA2E617
S30650000AA306F6
S30650000AA46F8C
S30650000AA5F00A
S30650000AA61FDA
S30650000AA7E117
S30650000AA89364
S30650000AA917DF
S30650000AAA4BAA
S30650000AAB01F3
S30650000AACE310
S30650000AAD9062
S30650000AAE07EA
S30650000AAFCA26
S30650000AB0836C
S30650000AB127C7
S30650000AB28964
S30650000AB300EC
S30650000AB433B8
S30650000AB58A60
S30650000AB64A9F
S30650000AB701E7
S30650000AB813D4
S30650000AB96A7C
S30650000ABA1ACB
S30650000ABB00E4
S30650000ABC23C0
S30650000ABDA240
S30650000ABE479A
S30650000ABF01DF
S30650000AC06F70
S30650000AC1F0EE
S30650000AC2DFFE
S30650000AC3D309
S30650000AC49348
S30650000AC507D3
S30650000AC610C9
S30650000AC700D8
S30650000AC813C4
S30650000AC90ACC
S30650000ACA00D5
S30650000ACB00D4
S30650000ACC6F64
S30650000ACDF0E2
S30650000ACE5F72
S30650000ACFCE02
S30650000AD0B718
S30650000AD17757
S30650000AD200CD
S30650000AD3517B
S30650000AD423A8
S30650000AD5A228
S30650000AD67752
S30650000AD74187
S30650000AD86F58
S30650000AD9F0D6
S30650000ADADFE6
S30650000ADBC8FC
S30650000ADC9330
S30650000ADD05BD
S30650000ADE843D
S30650000ADF00C0
S30650000AE013AC
S30650000AE18539
S30650000AE209B4
S30650000AE300BC
S30650000AE4EFCC
S30650000AE500BA
S30650000AE600B9
S30650000AE7199F
S30650000AE803B4
S30650000AE9278F
S30650000AEA0CA9
S30650000AEB00B4
S30650000AEC6F44
S30650000AEDF0C2
S30650000AEE1F92
S30650000AEFD1DF
S30650000AF0139C
S30650000AF106A8
S30650000AF2406D
S30650000AF31597
S30650000AF46348
S30650000AF56C3E
S30650000AF6E6C3
S30650000AF700A8
S30650000AF81394
S30650000AF9D6D0
S30650000AFAF7AE
S30650000AFB00A4
S30650000AFC9310
S30650000AFD059D
S30650000AFE861B
S30650000AFF0799
S30650000B00930B
S30650000B019508
S30650000B021587
S30650000B03009B
S30650000B041387
S30650000B050693
S30650000B067622
S30650000B070790
S30650000B086F27
S30650000B09F0A5
S30650000B0ADFB5
S30650000B0BDAB9
S30650000B0C137F
S30650000B0D058C
S30650000B0E4050
S30650000B0F553A
S30650000B1093FB
S30650000B110588
S30650000B12E0AC
S30650000B130F7C
S30650000B141377
S30650000B150683
S30650000B16E0A8
S30650000B170780
S30650000B18E3A3
S30650000B196E17
S30650000B1AE59F
S30650000B1BD8AB
S30650000B1C136F
S30650000B1DD6AB
S30650000B1E2759
S30650000B1F017E
S30650000B2093EB
S30650000B210578
S30650000B22D6A6
S30650000B230774
S30650000B2493E7
S30650000B2595E4
S30650000B261563
S30650000B270077
S30650000B281363
S30650000B29066F
S30650000B2AC6AE
S30650000B2B076C
S30650000B2C6F03
S30650000B2DF081
S30650000B2E9FD1
S30650000B2FD897
S30650000B3083EB
S30650000B312746
S30650000B324923
S30650000B33006B
S30650000B346FFB
S30650000B35F079
S30650000B36DF89
S30650000B37EB7C
S30650000B3893D3
S30650000B39D68F
S30650000B3A3430
S30650000B3B0063
S30650000B3C93CF
S30650000B3D87DA
S30650000B3E164A
S30650000B3F005F
S30650000B4093CB
S30650000B4197C6
S30650000B421745
S30650000B43005B
S30650000B446FEB
S30650000B45F069
S30650000B46DF79
S30650000B47A9AE
S30650000B4867EF
S30650000B4980D5
S30650000B4A0054
S30650000B4B0053
S30650000B4C67EB
S30650000B4D80D1
S30650000B4E0050
S30650000B4F004F
S30650000B50133B
S30650000B51014C
S30650000B52014B
S30650000B53FE4D
S30650000B542327
S30650000B552821
S30650000B562127
S30650000B570146
S30650000B58370F
S30650000B59192C
S30650000B5A0044
S30650000B5B51F2
S30650000B5C132F
S30650000B5D0938
S30650000B5E0937
S30650000B5F2817
S30650000B60231B
S30650000B612C11
S30650000B6281BB
S30650000B63003B
S30650000B642317
S30650000B652A0F
S30650000B6691A7
S30650000B670037
S30650000B681323
S30650000B6984B1
S30650000B6A052F
S30650000B6B0033
S30650000B6C230F
S30650000B6D260B
S30650000B6E31FF
S30650000B6F012E
S30650000B70230B
S30650000B712EFF
S30650000B72111B
S30650000B73002B
S30650000B749397
S30650000B750920
S30650000B760523
S30650000B770027
S30650000B78EF37
S30650000B79F035
S30650000B7A1F05
S30650000B7BFD26
S30650000B7C031F
S30650000B7D27FA
S30650000B7E8997
S30650000B7F001F
S30650000B80B767
S30650000B811706
S30650000B82001C
S30650000B83001B
S30650000B848397
S30650000B8524F5
S30650000B8647D1
S30650000B870017
S30650000B889383
S30650000B898590
S30650000B8AF71D
S30650000B8BFE15
S30650000B8C937F
S30650000B8DF41D
S30650000B8EC44C
S30650000B8FFF10
S30650000B9033DB
S30650000B918489
S30650000B928488
S30650000B9340CB
S30650000B9433D7
S30650000B950405
S30650000B96B454
S30650000B970007
S30650000B9813F3
S30650000B9954B1
S30650000B9AC440
S30650000B9B0003
S30650000B9C13EF
S30650000B9D04FD
S30650000B9EF40C
S30650000B9FFF00
S30650000BA013EB
S30650000BA114E9
S30650000BA2C438
S30650000BA300FB
S30650000BA46397
S30650000BA54CAD
S30650000BA6F404
S30650000BA700F7
S30650000BA813E3
S30650000BA905F0
S30650000BAA00F4
S30650000BAB00F3
S30650000BACEF03
S30650000BAD00F1
S30650000BAE8070
S30650000BAF6986
S30650000BB0836B
S30650000BB127C6
S30650000BB28963
S30650000BB300EB
S30650000BB4B337
S30650000BB58762
S30650000BB69751
S30650000BB700E7
S30650000BB86383
S30650000BB906DF
S30650000BBAF5EF
S30650000BBB02E1
S30650000BBC13CF
S30650000BBD855C
S30650000BBE09D7
S30650000BBF00DF
S30650000BC0EFEF
S30650000BC1F0ED
S30650000BC2DFFD
S30650000BC3F8E3
S30650000BC48357
S30650000BC520B9
S30650000BC6C117
S30650000BC701D6
S30650000BC813C3
S30650000BC905D0
S30650000BCA00D4
S30650000BCB00D3
S30650000BCC03CF
S30650000BCD24AD
S30650000BCE814F
S30650000BCF01CE
S30650000BD0834B
S30650000BD124A9
S30650000BD2418B
S30650000BD301CA
S30650000BD403C7
S30650000BD529A0
S30650000BD601C7
S30650000BD701C6
S30650000BD88343
S30650000BD9299C
S30650000BDAC103
S30650000BDB00C3
S30650000BDC13AF
S30650000BDD01C0
S30650000BDE01BF
S30650000BDF02BD
S30650000BE06757
S30650000BE1803D
S30650000BE200BC
S30650000BE300BB
S30650000BE43387
S30650000BE505B4
S30650000BE68038
S30650000BE74077
S30650000BE8EFC7
S30650000BE900B5
S30650000BEAC0F4
S30650000BEB654E
S30650000BEC931F
S30650000BED07AA
S30650000BEEF0C0
S30650000BEFFFB0
S30650000BF0634B
S30650000BF106A7
S30650000BF2F5B7
S30650000BF304A7
S30650000BF43773
S30650000BF57732
S30650000BF600A8
S30650000BF75156
S30650000BF88323
S30650000BF9277E
S30650000BFA871D
S30650000BFB4162
S30650000BFC831F
S30650000BFD267B
S30650000BFE8917
S30650000BFF009F
S30650000C00B3EA
S30650000C018418
S30650000C028417
S30650000C03405A
S30650000C049306
S30650000C05E4B4
S30650000C061483
S30650000C070096
S30650000C083362
S30650000C098410
S30650000C0A870C
S30650000C0B4052
S30650000C0C137E
S30650000C0D850B
S30650000C0E0986
S30650000C0F008E
S30650000C10236A
S30650000C11A2EA
S30650000C1296F5
S30650000C13008A
S30650000C142366
S30650000C152C5C
S30650000C168700
S30650000C174046
S30650000C18EF96
S30650000C19F094
S30650000C1A5F24
S30650000C1BF38F
S30650000C1C83FE
S30650000C1D2060
S30650000C1EC1BE
S30650000C1F017D
S30650000C20136A
S30650000C210577
S30650000C22106B
S30650000C23007A
S30650000C240376
S30650000C252454
S30650000C2681F6
S30650000C270175
S30650000C2883F2
S30650000C292450
S30650000C2A4132
S30650000C2B0171
S30650000C2C036E
S30650000C2D2947
S30650000C2E016E
S30650000C2F016D
S30650000C3083EA
S30650000C312943
S30650000C32C1AA
S30650000C33006A
S30650000C341356
S30650000C350167
S30650000C360166
S30650000C370264
S30650000C3867FE
S30650000C3980E4
S30650000C3A0063
S30650000C3B0062
S30650000C3C134E
S30650000C3D055B
S30650000C3E005F
S30650000C3F005E
S30650000C40EF6E
S30650000C41005C
S30650000C42401B
S30650000C4360FA
S30650000C440356
S30650000C452731
S30650000C4689CE
S30650000C470056
S30650000C4893C2
S30650000C49064E
S30650000C4AF063
S30650000C4B0052
S30650000C4CB39E
S30650000C4D0749
S30650000C4EE56A
S30650000C4F400E
S30650000C50E36A
S30650000C51D676
S30650000C52F655
S30650000C53F654
S30650000C54B792
S30650000C5576D2
S30650000C560047
S30650000C5751F5
S30650000C5883C2
S30650000C59A69E
S30650000C5A46FD
S30650000C5B4002
S30650000C5C93AE
S30650000C5DE759
S30650000C5E1728
S30650000C5F003E
S30650000C60330A
S30650000C610537
S30650000C62D566
S30650000C6340FA
S30650000C64B782
S30650000C6576C2
S30650000C660037
S30650000C6751E5
S30650000C682312
S30650000C69AC88
S30650000C6AA68D
S30650000C6B40F2
S30650000C6C230E
S30650000C6D220E
S30650000C6EF738
S30650000C6F002E
S30650000C706FBE
S30650000C71F03C
S30650000C72DF4C
S30650000C73F436
S30650000C7463C6
S30650000C758E9A
S30650000C760522
S30650000C770E18
S30650000C781312
S30650000C790123
S30650000C7A0122
S30650000C7BFF23
S30650000C7C23FE
S30650000C7D24FC
S30650000C7E819E
S30650000C7F001E
S30650000C80130A
S30650000C818498
S30650000C820516
S30650000C83001A
S30650000C8423F6
S30650000C8522F6
S30650000C869186
S30650000C870016
S30650000C8823F2
S30650000C8926EE
S30650000C8A1102
S30650000C8B0012
S30650000C8C937E
S30650000C8D040C
S30650000C8E050A
S30650000C8F000E
S30650000C90EF1E
S30650000C91F01C
S30650000C929F6C
S30650000C93EB1F
S30650000C940306
S30650000C9525E3
S30650000C96C443
S30650000C97FF07
S30650000C9813F2
S30650000C9906FE
S30650000C9A847F
S30650000C9BFF03
S30650000C9C936E
S30650000C9D7789
S30650000C9EE51A
S30650000C9FFFFF
S30650000CA0B746
S30650000CA115E7
S30650000CA200FB
S30650000CA351A9
S30650000CA4B346
S30650000CA506F2
S30650000CA6F601
S30650000CA700F6
S30650000CA89362
S30650000CA9856F
S30650000CAA05EE
S30650000CAB28CA
S30650000CAC03EE
S30650000CADA749
S30650000CAE46A9
S30650000CAF00EE
S30650000CB003EA
S30650000CB1A844
S30650000CB28566
S30650000CB300EA
S30650000CB413D6
S30650000CB57771
S30650000CB6C720
S30650000CB7FFE7
S30650000CB813D2
S30650000CB9756F
S30650000CBA15CE
S30650000CBB00E2
S30650000CBC637E
S30650000CBD8E52
S30650000CBE06D9
S30650000CBF15C9
S30650000CC023BA
S30650000CC1A23A
S30650000CC2E6F5
S30650000CC300DA
S30650000CC46376
S30650000CC516C2
S30650000CC605D2
S30650000CC702D4
S30650000CC803D2
S30650000CC925AF
S30650000CCA844F
S30650000CCBFFD3
S30650000CCC339E
S30650000CCD06CA
S30650000CCEA629
S30650000CCF408E
S30650000CD0B31A
S30650000CD18745
S30650000CD2A724
S30650000CD300CA
S30650000CD403C6
S30650000CD528A0
S30650000CD68641
S30650000CD700C6
S30650000CD8378E
S30650000CD915AF
S30650000CDA00C3
S30650000CDB5171
S30650000CDC13AE
S30650000CDD05BB
S30650000CDE853A
S30650000CDF2896
S30650000CE0635A
S30650000CE104B8
S30650000CE2A813
S30650000CE318A2
S30650000CE403B6
S30650000CE52593
S30650000CE6C6F1
S30650000CE700B6
S30650000CE82392
S30650000CE9268E
S30650000CEAA80B
S30650000CEB00B2
S30650000CEC238E
S30650000CED248C
S30650000CEE05AA
S30650000CEF01AD
S30650000CF0337A
S30650000CF18527
S30650000CF2E6C5
S30650000CF300AA
S30650000CF403A6
S30650000CF52583
S30650000CF64562
S30650000CF700A6
S30650000CF81392
S30650000CF9752F
S30650000CFA158E
S30650000CFB00A2
S30650000CFC633E
S30650000CFD049C
S30650000CFE059A
S30650000CFF0E90
S30650000D009309
S30650000D01E6B5
S30650000D021783
S30650000D030099
S30650000D043365
S30650000D050790
S30650000D06F6A0
S30650000D070095
S30650000D082371
S30650000D092271
S30650000D0AD6BC
S30650000D0B0091
S30650000D0C236D
S30650000D0D206F
S30650000D0EF797
S30650000D0F008D
S30650000D101379
S30650000D110784
S30650000D12F09A
S30650000D131F6A
S30650000D146325
S30650000D156027
S30650000D16F78F
S30650000D17067F
S30650000D1893F1
S30650000D19D7AC
S30650000D1A374B
S30650000D1B0081
S30650000D1C136D
S30650000D1D87F8
S30650000D1E1767
S30650000D1F007D
S30650000D201369
S30650000D211764
S30650000D223743
S30650000D230079
S30650000D2483F5
S30650000D25A6D1
S30650000D264531
S30650000D270075
S30650000D283341
S30650000D2987EC
S30650000D2AE58D
S30650000D2B0071
S30650000D2C93DD
S30650000D2DD798
S30650000D2E2747
S30650000D2F402D
S30650000D301359
S30650000D310566
S30650000D32105A
S30650000D330069
S30650000D340365
S30650000D35283F
S30650000D36075F
S30650000D370065
S30650000D38B3B1
S30650000D39174C
S30650000D3AF56D
S30650000D3B0061
S30650000D3CB3AD
S30650000D3DE778
S30650000D3ED787
S30650000D3F005D
S30650000D4093C9
S30650000D410655
S30650000D4287D3
S30650000D43FF5A
S30650000D442335
S30650000D452631
S30650000D46D680
S30650000D470055
S30650000D482331
S30650000D49242F
S30650000D4A064C
S30650000D4B0150
S30650000D4C232D
S30650000D4DA2AD
S30650000D4EF559
S30650000D4F004D
S30650000D502329
S30650000D51202B
S30650000D52C783
S30650000D530049
S30650000D542325
S30650000D552621
S30650000D56C87E
S30650000D570045
S30650000D581331
S30650000D5985BE
S30650000D5A043E
S30650000D5B0041
S30650000D5C83BD
S30650000D5D201F
S30650000D5EC17D
S30650000D5F003D
S30650000D600339
S30650000D612417
S30650000D6281B9
S30650000D630039
S30650000D6483B5
S30650000D652413
S30650000D6641F5
S30650000D670035
S30650000D681321
S30650000D690132
S30650000D6A0131
S30650000D6B0130
S30650000D6C6FC1
S30650000D6DF03F
S30650000D6E1F0F
S30650000D6FDE4F
S30650000D7067C5
S30650000D7180AB
S30650000D72002A
S30650000D730029
S30650000D741315
S30650000D75D750
S30650000D76978F
S30650000D770025
S30650000D789391
S30650000D79061D
S30650000D7A40E2
S30650000D7B0021
S30650000D7C63BD
S30650000D7DE23D
S30650000D7EE638
S30650000D7F120B
S30650000D801309
S30650000D81D744
S30650000D8267B3
S30650000D830019
S30650000D841305
S30650000D850512
S30650000D86977F
S30650000D870312
S30650000D889381
S30650000D89060D
S30650000D8A878B
S30650000D8B030E
S30650000D8C13FD
S30650000D8D15FA
S30650000D8E15F9
S30650000D8F000D
S30650000D9013F9
S30650000D9115F6
S30650000D9225E5
S30650000D930009
S30650000D9433D5
S30650000D958582
S30650000D96A561
S30650000D970005
S30650000D980301
S30650000D9927DC
S30650000D9A05FD
S30650000D9B0001
S30650000D9C13ED
S30650000D9D05FA
S30650000D9E8579
S30650000D9FFFFE
S30650000DA06399
S30650000DA10CEF
S30650000DA2E515
S30650000DA310E9
S30650000DA48375
S30650000DA526D1
S30650000DA647AF
S30650000DA700F5
S30650000DA89361
S30650000DA9F6FD
S30650000DAAC62C
S30650000DABFFF2
S30650000DAC638D
S30650000DADF6F9
S30650000DAED717
S30650000DAF00ED
S30650000DB003E9
S30650000DB127C4
S30650000DB28763
S30650000DB300E9
S30650000DB4E305
S30650000DB518CF
S30650000DB6E501
S30650000DB7FEE7
S30650000DB803E1
S30650000DB925BE
S30650000DBAC71B
S30650000DBB00E1
S30650000DBC23BD
S30650000DBD26B9
S30650000DBEA638
S30650000DBF00DD
S30650000DC023B9
S30650000DC124B7
S30650000DC2E6F4
S30650000DC300D9
S30650000DC48355
S30650000DC520B7
S30650000DC6C115
S30650000DC700D5
S30650000DC823B1
S30650000DC924AF
S30650000DCAC50D
S30650000DCB00D1
S30650000DCC03CD
S30650000DCD24AB
S30650000DCE814D
S30650000DCF00CD
S30650000DD013B9
S30650000DD18546
S30650000DD204C6
S30650000DD300C9
S30650000DD48345
S30650000DD524A3
S30650000DD64185
S30650000DD700C5
S30650000DD823A1
S30650000DD9269D
S30650000DDAC7FB
S30650000DDB00C1
S30650000DDC13AD
S30650000DDD01BE
S30650000DDE01BD
S30650000DDF01BC
S30650000DE06F4D
S30650000DE1F0CB
S30650000DE2DFDB
S30650000DE3D6E3
S30650000DE4B305
S30650000DE58730
S30650000DE6E7CF
S30650000DE700B5
S30650000DE803B1
S30650000DE9A50E
S30650000DEA862C
S30650000DEB00B1
S30650000DEC3779
S30650000DED1798
S30650000DEE00AE
S30650000DEF515C
S30650000DF01399
S30650000DF107A4
S30650000DF28723
S30650000DF32881
S30650000DF46345
S30650000DF502A5
S30650000DF6E5C1
S30650000DF70E97
S30650000DF803A1
S30650000DF9A8FB
S30650000DFAC6DC
S30650000DFB00A1
S30650000DFC336D
S30650000DFD0798
S30650000DFEF6A8
S30650000DFF009D
S30650000E009308
S30650000E01E6B4
S30650000E021782
S30650000E030098
S30650000E042374
S30650000E052670
S30650000E060590
S30650000E070193
S30650000E082370
S30650000E09246E
S30650000E0AA8E9
S30650000E0B0090
S30650000E0C236C
S30650000E0D226C
S30650000E0ED6B7
S30650000E0F008C
S30650000E102368
S30650000E11206A
S30650000E12F792
S30650000E130088
S30650000E146F18
S30650000E15F096
S30650000E16DFA6
S30650000E17EF95
S30650000E18B3D0
S30650000E1987FB
S30650000E1AE79A
S30650000E1B0080
S30650000E1C631C
S30650000E1D106E
S30650000E1E0578
S30650000E1F027A
S30650000E200378
S30650000E212555
S30650000E2284F5
S30650000E23FF79
S30650000E243344
S30650000E250670
S30650000E26A6CF
S30650000E274034
S30650000E280370
S30650000E29274B
S30650000E2AC6AB
S30650000E2B0070
S30650000E2C83EC
S30650000E2D2648
S30650000E2E86E7
S30650000E2F006C
S30650000E30B3B8
S30650000E3187E3
S30650000E32A7C2
S30650000E330068
S30650000E342344
S30650000E35A6C0
S30650000E36E67F
S30650000E370064
S30650000E382340
S30650000E39243E
S30650000E3AD78A
S30650000E3B0060
S30650000E3C3728
S30650000E3D77E7
S30650000E3E005D
S30650000E3F510B
S30650000E400358
S30650000E412733
S30650000E4287D2
S30650000E434018
S30650000E4493C4
S30650000E45E670
S30650000E46173E
S30650000E470054
S30650000E482330
S30650000E492230
S30650000E4AD67B
S30650000E4B0050
S30650000E4C232C
S30650000E4DA4AA
S30650000E4EC588
S30650000E4F004C
S30650000E50E368
S30650000E51E466
S30650000E52E762
S30650000E53F058
S30650000E54B790
S30650000E5577CF
S30650000E560045
S30650000E5751F3
S30650000E5883C0
S30650000E59A59D
S30650000E5A87BA
S30650000E5B46FA
S30650000E5C132C
S30650000E5D85B9
S30650000E5E0439
S30650000E5F003C
S30650000E60EF4C
S30650000E61F04A
S30650000E621F1A
S30650000E63CF69
S30650000E646FC8
S30650000E65F046
S30650000E665FD6
S30650000E67EF45
S30650000E68B380
S30650000E6985AD
S30650000E6AE64B
S30650000E6B0030
S30650000E6C83AC
S30650000E6DA589
S30650000E6E45E8
S30650000E6F002C
S30650000E709398
S30650000E71F535
S30650000E721514
S30650000E730028
S30650000E7463C4
S30650000E759294
S30650000E760520
S30650000E770E16
S30650000E7883A0
S30650000E79A57D
S30650000E7A869B
S30650000E7B0020
S30650000E7CB36C
S30650000E7D0717
S30650000E7EF726
S30650000E7F001C
S30650000E808398
S30650000E81A674
S30650000E82C653
S30650000E830018
S30650000E841304
S30650000E85E531
S30650000E8617FE
S30650000E870014
S30650000E8833E0
S30650000E89070B
S30650000E8AF61B
S30650000E8B0010
S30650000E8C23EC
S30650000E8DA668
S30650000E8ED538
S30650000E8F000C
S30650000E9023E8
S30650000E91A466
S30650000E92B653
S30650000E930008
S30650000E9423E4
S30650000E9522E4
S30650000E96A65F
S30650000E970004
S30650000E9823E0
S30650000E9920E2
S30650000E9AF70A
S30650000E9B0000
S30650000E9C6F90
S30650000E9DF00E
S30650000E9EDF1E
S30650000E9FEB11
S30650000EA09368
S30650000EA106F4
S30650000EA240B9
S30650000EA301F7
S30650000EA46394
S30650000EA5EC0A
S30650000EA6E60F
S30650000EA704F0
S30650000EA813E0
S30650000EA905ED
S30650000EAAC72A
S30650000EAB05EB
S30650000EAC935C
S30650000EAD06E8
S30650000EAEB736
S30650000EAF05E7
S30650000EB013D8
S30650000EB115D5
